:100000000C942F000C9400000C9400000C94000041
:100010000C9400000C9400000C9400000C94000060
:100020000C9400000C9400000C9400000C94000050
:100030000C9400000C9400000C9400000C94000040
:100040000C9400000C9400000C9400000C94000030
:100050000C94000000000100020054000000F8941D
:10006000EE27ECBBF1E0F5BFE5BF8DE0A2E0BB27DA
:10007000ED938A95E9F780E098E0A0E6ED9301978B
:10008000E9F7E6E5F0E085919591009761F0A5919B
:10009000B59105901590BF01F00105900D92019763
:1000A000E1F7FB01F0CFEFE5EDBFE8E0EEBFC0E622
:1000B000D2E00C945B00EFEFE7BB44245524E4EF5F
:1000C000F1E04E165F0644F4A1E0B0E00E94760035
:1000D000F20131962F01F3CFE1E02E2620FE02C07F
:1000E000EFEF01C0E0E0E8BBE8CFFFCF109639F0BA
:1000F0008AEF90E00197F1F7A8951197C9F7089555
:00000001FF
